:042000001CEF10F0D1
:08200800FD0E926E2DEF10F0A9
:10201000EA6A060EE96EEF500EE00F0E016E006ADE
:10202000002EFED7012EFBD78F0E006E002EFED79E
:102030000000EF2EF2D71200F86AD09E700ED36E19
:10204000D26A9B6A0F015B6B5C6B5D6B5E6B5F6B57
:102050009A6A996A986A0001D7D792928982020E89
:10206000056EFA0E066ED4DF052EFBD7929289928A
:10207000020E056EFA0E066ECBDF052EFBD7EDD7EE
:0220800003005B
:020000040030CA
:0E00000023C85E3C00D3A1000FC00FE00F40EC
:00000001FF
;PIC18F45K50
;CRC=C6DF  CREATED="01-dic.-20 09:45"
